:020000040800F2
:1000000010080020A90100087B1A000867190008E1
:10001000791A0008550700080120000800000000B8
:100020000000000000000000000000009F1A00080F
:1000300057070008000000009D1A0008A11A0008D8
:10004000C3010008C3010008C3010008C301000880
:10005000C3010008C3010008C3010008C301000870
:10006000C3010008C3010008C3010008C301000860
:10007000C3010008C3010008C3010008C301000850
:10008000C3010008C3010008C3010008C301000840
:10009000C3010008C3010008C3010008C301000830
:1000A000C3010008C3010008C3010008C301000820
:1000B000C3010008C3010008C3010008C301000810
:1000C000C3010008C3010008C3010008C301000800
:1000D000C3010008C3010008C3010008C3010008F0
:1000E000C3010008C3010008C3010008C3010008E0
:1000F000C3010008C3010008C3010008C3010008D0
:10010000C30100080000000000000000C301000857
:10011000651B0008711B0008C3010008C30100082B
:10012000C3010008C3010008C3010008C30100089F
:10013000C3010008C3010008000000000000000027
:10014000C3010008C3010008C3010008000000004B
:10015000000000000000000000000000000000009F
:10016000C3010008C3010008C3010008C30100085F
:10017000C3010008C3010008C3010008C30100084F
:10018000C3010008C30100080000000000000000D7
:10019000C3010008DFF80CD000F0CAFA004800479D
:1001A000C92D00081008002006488047064800476F
:1001B000FEE7FEE7FEE7FEE7FEE7FEE7FEE7FEE717
:1001C000FEE7FEE7FD1A000895010008202A04DB7F
:1001D000203A21FA02F00021704721FA02F3D040C0
:1001E000C2F120029140084319467047D2B201E0A3
:1001F00000F8012B491EFBD270470022F6E710B52C
:1002000013460A4604461946FFF7F0FF204610BD84
:100210002DE9FE4F804681EA0300C00F0C46009096
:1002200021F0004123F00045B8EB0200A94105D2BE
:100230004046214690461C460B46024623F00040AD
:10024000104347D0270DC7F30A00C3F30A510290A9
:10025000401A019040286BDAC3F3130040F4801B6E
:100260000098924620B10023D2EB030A63EB0B0BFC
:1002700001985946C0F14002504600F0ABF90646DD
:100280000D4650465946019A00F0B3F910EB0800AC
:100290006141002487EA115284EAE7731A4340D08F
:1002A000009A62B3019A012A4FEA075215DC001B3B
:1002B00061EB02014FF0004202EA0752CDE9004231
:1002C000001C41F5801132462B4600F0B3F903B013
:1002D000BDE8F08F40462146F9E7001B61EB0201C3
:1002E000001C41F5801300185B412018A2F500178F
:1002F00047EB030140EAD570B6196D4111E06D0876
:100300004FEA360645EAC0754FEA0752001B61EB1B
:100310000201001C41F5801149084FEA3000001924
:10032000514132462B4603B0BDE8F04F00F073B99F
:100330000098012240000023D0EB020263EBE0733F
:10034000009821464FEAE074B8EB000061EB04012D
:10035000E9E783F000435BE781F0004158E72DE9CE
:10036000FE4F81EA030404F0004421F000410094B0
:100370004FF0000B23F0004350EA01045ED052EA34
:1003800003045BD0C3F30A54C1F30A552C44A4F20E
:10039000F3340194A0FB0254C1F3130141F4801122
:1003A000C3F3130343F4801301FB024400FB034E29
:1003B000840A970A44EA815447EA8357A4FB0768F2
:1003C00002958D0A05FB07854FEA932C04FB0C541C
:1003D0002705029D4FEA065847EA1637B5EB080590
:1003E0006EEB070C870E920E47EA811742EA8312E2
:1003F000A7FB0201B6EB0B0164EB00042B0D43EAF3
:100400000C335E1844EB1C50DA465146E7FB020100
:10041000C5F313044FEA0B3343EA14534FEA043293
:10042000019C43EA0603A4F10C040294009CCDE96C
:1004300000B400F0FFF803B0BDE8F08F00200146E3
:10044000F9E72DE9F04D81EA030404F0004B21F0B7
:10045000004514464FF0000A23F0004150EA05021F
:1004600020D054EA01021DD0C5F30A570246C5F355
:100470001303C1F31300C1F30A5640F4801543F48B
:100480008013A7EB0608101BD64608F2FD3873EB65
:10049000050002D308F1010801E092185B41B8F1B0
:1004A000000F03DA00200146BDE8F08D00204FF474
:1004B0008011064684460EE0171B73EB050705D333
:1004C000121B63EB050306434CEA010C49084FEA93
:1004D000300092185B4150EA0107EDD152EA030067
:1004E00012D082EA040083EA0501084305D0101BFC
:1004F000AB4106D20122002306E000224FF0004368
:1005000002E06FF0010253101AEB06004CEB0851A9
:1005100010EB0A0041EB0B01BDE8F04D00F07BB899
:1005200000F0004230F000400AD0C10D01F56071CA
:10053000C0F3160042EA0151C20840071143704758
:1005400000200146704730B50B46014600202022AE
:10055000012409E021FA02F59D4205D303FA02F5D0
:10056000491B04FA02F52844151EA2F10102F1DC30
:1005700030BD2DE9F05F0546002092469B46884637
:100580000646814640241BE028464146474622460F
:10059000FFF71CFE53465A46C01A914110D311462C
:1005A0001846224600F016F82D1A67EB01084F4650
:1005B00022460120002100F00DF817EB00094E4102
:1005C000201EA4F10104DFDC484631462A4643469A
:1005D000BDE8F09F202A04DB203A00FA02F1002057
:1005E00070479140C2F1200320FA03F31943904071
:1005F0007047202A06DBCB17203A41FA02F043EA83
:10060000E07306E041FA02F3D040C2F120029140CB
:1006100008431946704710B5141E73F1000408DA38
:10062000401C41F1000192185B411A4301D120F0B6
:10063000010010BD2DE9F04D92469B4611B1B1FA73
:1006400081F202E0B0FA80F220329046FFF7C2FF5A
:1006500004460F4640EA0A0041EA0B0153465A4657
:10066000084313D0114653EA010019D0C8F14002E3
:100670005046FFF7ABFD05460E46504659464246EA
:10068000FFF7A8FF084305D0012004E020463946C3
:10069000BDE8F08D0020054346EAE0762C43374361
:1006A0000A986305E40AA0EB08000022FD0A44EA68
:1006B00047540A3002D500200146E9E70105101928
:1006C0006941DDE9084500196941BDE8F04DA2E73F
:1006D000C1F30A52C1F3130140F2FF3341F4801118
:1006E0009A4202DA00200146704740F233439A42B0
:1006F000A2F2334202DC5242FFF768BDFFF76ABF45
:1007000030B5041E71F1000404DB4FF00044404298
:1007100064EB0101141E73F1000405DB1C464FF06D
:100720000043524263EB0403994208BF904230BD3C
:10073000064C074D06E0E06840F0010394E807002E
:1007400098471034AC42F6D3FFF728FD403000083C
:1007500060300008FEE7704710B590F821100024C3
:10076000022903D004218163012418E001680A688A
:1007700022F00E020A6001680A6822F001020A6093
:1007800090F84020C36B012101FA02F25A6080F810
:100790002110002180F82010416B01B188472046CC
:1007A00010BD000070B5044600F0FAF80546601C64
:1007B00002D004480078044400F0F2F8401BA04244
:1007C000FAD370BD500000202DE9F84FDFF8A0B13A
:1007D000002301274FF0030A4FF00F090BF1040E1D
:1007E000BEE000BF07FA03F63440220072D04C6826
:1007F000022C01D0122C12D1DC0800EB840CDCF8A6
:1008000020405D07ED0E09FA05F824EA0804D1F846
:10081000108008FA05F848EA0408CCF82080D0F8DF
:1008200000805D0091F804C00AFA05F40CF0030C96
:1008300028EA04080CFA05FC4CEA080CC0F800C0D1
:10084000D1F804C0BCF1010F08D0BCF1020F05D0F3
:10085000BCF1110F02D0BCF1120F16D1D0F808C0B4
:10086000D1F80C802CEA040C08FA05F848EA0C08C8
:10087000C0F80880D0F804C02CEA060C0E79C6F344
:1008800000169E4046EA0C064660C668A6438C6881
:10089000AC403443C4604C68E40060D5354CA56975
:1008A00045F00105A561A46923F0030504F00104E6
:1008B0000094314C2E19B4689D074FEA157C09FA53
:1008C0000CF5AC43B0F1904F05D02C4DA84204D1AB
:1008D00001251CE043E0002519E0294DA84201D183
:1008E000022514E0274DA84201D103250FE0264D33
:1008F000A84201D104250AE0244DA84201D10525D2
:1009000005E0234DA84201D1062500E0072505FAA0
:100910000CF52543B560DBF800405D464E68944316
:10092000F60300D514432C60DEF8004075464E688F
:100930009443B60300D514432C600D4D08352C6844
:100940004E689443F60200D514432C60084D0C35D4
:100950002C684E689443B60200D514432C605B1C8F
:100960000A681446DA407FF43DAFBDE8F88F000016
:100970000004014000100240000001400004004853
:1009800000080048000C004800100048001400480F
:10099000001800480069084000D00120704700009E
:1009A00001488068704700005000002002488168BC
:1009B000027811448160704750000020074810B54C
:1009C000016841F010010160032000F06BF8002085
:1009D00000F006F800F024F8002010BD00200240CE
:1009E00070B50D4D04464FF47A712878B1FBF0F0E4
:1009F0000A490968B1FBF0F000F07AFD48B9102C03
:100A000007D200222146501E00F02CF800206C6016
:100A100070BD012070BD0000500000205C0000206F
:100A2000094808B5816941F001018161816901F0DE
:100A300001010091C16941F08051C161C06900F0BC
:100A40008050009008BD00000010024000F01F021E
:100A5000012191404009800000F1E020C0F8001120
:100A600070470000F0B40E4B1B680C46C3F3022322
:100A7000C3F10705042D00D90425191D072901D24A
:100A8000002300E0DB1E012606FA05F1491E214085
:100A900099409E40761E16403143F0BC00F0EEBFF8
:100AA0000CED00E0064900F0070208684FF6FF036E
:100AB000184040EA0220034A1043086070470000D3
:100AC0000CED00E00000FA052DE9F84F044600683F
:100AD0009F4DC0036FD5E8690026C00008D4E869BF
:100AE00040F08050E861E869012600F080500090F5
:100AF00098480168C90512D40168804641F48071A4
:100B00000160FFF74DFF074605E000BFFFF748FF14
:100B1000C01B642835D8D8F80000C005F6D5286A6F
:100B200010F4407053D0A18801F4407181424ED03E
:100B3000286A4FF4803191FAA1F2B2FA82F297005A
:100B4000854A4FF00108174420F44070C7F800842C
:100B500091FAA1F1B1FA81F102EB81010023C1F810
:100B600000342862C00732D0FFF71AFF074641F26F
:100B7000883A4FF0020907E0FFF712FFC11B514509
:100B800002D90320BDE8F88F99FAA9F1B1FA81F1F1
:100B900041F040024846B8EB521F01D12A680CE0F0
:100BA00090FAA0F2B2FA82F242F04002B0EB521F89
:100BB00002D12A6A01E015E06A6A99FAA9F0B0FA4E
:100BC00080F000F01F0008FA00F10A42D4D0286A31
:100BD000616820F44070084328621EB1E86920F083
:100BE0008050E8612078C00705D0286BA16820F00C
:100BF0000300084328632078800705D5286BE16847
:100C000020F44030084328632078400705D5286B3E
:100C1000216920F44020084328632078800605D508
:100C2000286BE16920F010000843286320688003E6
:100C300005D56868616D20F48000084368602078FD
:100C4000400605D5286B216A20F020000843286360
:100C50002068400305D5286B616A20F040000843F6
:100C600028632078000705D5286B616920F44010BF
:100C7000084328632078C00605D5286BA16920F4B5
:100C80004000084328632088800505D56868216BEB
:100C900020F40000084368602078000605D5E86A63
:100CA000A16A20F4F8700843E8622088C00505D5E1
:100CB000E86AE16A20F478500843E8622088C004BA
:100CC00005D5286B616B20F4807008432863208869
:100CD000800405D5286B216C20F40070084328633C
:100CE0002068C00205D5286BA16B20F080700843F6
:100CF00028632068800205D5286BE16B20F0007026
:100D0000084328632068400205D5286B616C20F4F5
:100D10008060084328632068000205D5286BA16C19
:100D200020F40060084328632068C00105D5286BC3
:100D3000E16C20F40050084328632068800105D549
:100D4000286B216D20F4004008432863002019E738
:100D50000010024000700040000042422DE9F047C0
:100D60000F46050069D04A4E306800F00700B842CF
:100D700009D2306820F0070038433060306800F056
:100D80000700B84259D12878424C800705D56068E1
:100D9000A96820F0F000084360602878C0073DD0C3
:100DA0006968012001290DD0022923D05FF00203D8
:100DB00093FAA3F2B2FA82F242F02002520904D06E
:100DC000226803E04FF40033F2E7626A93FAA3F378
:100DD000B3FA83F303F01F03984002422DD06068FA
:100DE00020F0030008436060FFF7DAFD804641F21F
:100DF00088390CE04FF00073DAE700BFFFF7D0FD51
:100E0000A0EB0801494502D90320BDE8F0876068DE
:100E1000696800F00C00B0EB810FEFD1306800F092
:100E20000700B8420BD9306820F007003843306023
:100E3000306800F00700B84201D00120E5E72878CB
:100E4000400705D56068E96820F4E0600843606009
:100E50002878000706D56068296920F4605040EAC8
:100E6000C100606000F04CF86168F02292FAA2F2D2
:100E700001F0F001B2FA82F2D140074A515CC84059
:100E8000064908600020FFF7ABFD0020BDE7000029
:100E900000200240001002408C2F00085C0000205F
:100EA00008480949006849684FF4E06292FAA2F2E2
:100EB00001F4E061B2FA82F2D140044A515CC840C8
:100EC000704700005C000020001002409C2F0008CA
:100ED00008480949006849684FF4605292FAA2F242
:100EE00001F46051B2FA82F2D140044A515CC84028
:100EF000704700005C000020001002409C2F00089A
:100F0000124B10B55968124801F00C02042A1CD08B
:100F1000082A1AD14FF4701494FAA4F401F4701250
:100F2000B4FA84F4E2400B4CDB6AA25C0F2494FA1E
:100F3000A4F403F00F03B4FA84F4E340054CC903AE
:100F40001034E35CB0FBF3F0504310BD00100240DE
:100F500000127A006C2F00082DE9F84F04007DD0B4
:100F60002078FA4DC0074FF0010637D06868770443
:100F7000C0F38100012819D06868C0F381000228FD
:100F800004D16868C0F3C13002280FD06068B0F5A2
:100F9000803F24D010B1B0F5A02F2AD0286820F4CB
:100FA00080302860286820F480201BE097FAA7F0A2
:100FB000B0FA80F040F02000400901D0286800E03D
:100FC000686A97FAA7F1B1FA81F101F01F0106FAF8
:100FD00001F108424ED060680028C0D04AE028687D
:100FE00040F480302860606820B3FFF7D9FC804669
:100FF0000AE0286840F480202860F0E7FFF7D0FC82
:10100000A0EB0800642873D897FAA7F0B0FA80F034
:1010100040F02000400901D0286800E0686A97FA93
:10102000A7F1B1FA81F101F01F0106FA01F10842BE
:10103000E4D01FE0FFF7B4FC804605E0FFF7B0FC0A
:10104000A0EB08006428DED897FAA7F0B0FA80F089
:1010500040F02000400902D0286801E0B9E0686A49
:1010600097FAA7F1B1FA81F101F01F0106FA01F137
:101070000842E3D12078DFF8D88280074FF0000AD9
:101080004FF002075DD568684FF0F80B10F00C0FB9
:1010900015D06868C0F38100022804D16868C0F3E5
:1010A000C13001280BD0E068A0B396FAA6F0B0FAE0
:1010B00080F048F82060FFF773FC814620E097FA43
:1010C000A7F0B0FA80F040F02000400901D0286875
:1010D00000E0686A97FAA7F1B1FA81F101F01F0107
:1010E00006FA01F1084221D0E068012871D11DE023
:1010F00056E100BFFFF754FCA0EB09000228A2D87C
:1011000097FAA7F0B0FA80F040F02000400902D032
:10111000286801E016E0686A97FAA7F1B1FA81F150
:1011200001F01F0106FA01F10842E3D028689BFA9A
:10113000ABF22169B2FA82F220F0F8009140084344
:10114000286024E096FAA6F1B1FA81F148F821A0CE
:10115000FFF726FC814605E0FFF722FCA0EB090023
:101160000228CCD897FAA7F0B0FA80F040F020001F
:10117000400901D0286800E0686A97FAA7F1B1FA3F
:1011800081F101F01F0106FA01F10842E4D1207853
:1011900000076AD56069A0B396FAA6F0B0FA80F0AD
:1011A00008EB8000C0F88064FFF7FAFB814605E099
:1011B000FFF7F6FBA0EB09000228A0D897FAA7F0EA
:1011C000B0FA80F040F06000B6EB501F02D1286802
:1011D0000CE073E197FAA7F0B0FA80F040F06000FD
:1011E000B7EB501F01D1286A00E0686A97FAA7F1AF
:1011F000B1FA81F101F01F0106FA01F21042D7D0D5
:1012000033E0FFE796FAA6F0B0FA80F008EB800032
:10121000C0F880A4FFF7C4FB814605E0FFF7C0FBE0
:10122000A0EB090002289CD897FAA7F0B0FA80F04A
:1012300040F06000B6EB501F01D128680BE097FA30
:10124000A7F0B0FA80F040F06000B7EB501F01D17A
:10125000286A00E0686A97FAA7F1B1FA81F101F013
:101260001F0106FA01F21042D8D12078400774D548
:10127000E8694FF00009C00009D4E86940F08050E7
:10128000E861E8694FF0010900F0805000903148B2
:101290000168C90512D4016841F480710160FFF74B
:1012A0007FFB834606E000BFFFF77AFBA0EB0B0055
:1012B000642875D827480068C005F5D5A0680128BE
:1012C0000AD008B1052811D0286A20F00100286250
:1012D000286A20F0040002E0286A40F00100286239
:1012E000A068C8B3FFF75CFB83460DE0286A40F0B6
:1012F00004002862F0E700BFFFF752FBA0EB0B01F0
:1013000041F2883081424BD897FAA7F0B0FA80F0CA
:1013100040F04000B6EB501F01D128680BE097FA6F
:10132000A7F0B0FA80F040F04000B7EB501F01D1B9
:10133000286A00E0686A97FAA7F1B1FA81F101F032
:101340001F0106FA01F21042D6D035E0001002402B
:10135000000042420070004000E034E0FFF720FB54
:10136000834607E0FFF71CFBA0EB0B0141F288303E
:10137000814215D897FAA7F0B0FA80F040F040000B
:10138000B6EB501F01D128680CE097FAA7F0B0FA2D
:1013900080F040F04000B7EB501F02D1286A01E016
:1013A00089E0686A97FAA7F1B1FA81F101F01F01AB
:1013B00006FA01F21042D5D1B9F1000F03D0E86965
:1013C00020F08050E861A06980B36968C1F38101B1
:1013D000022973D04FF080714F000228524609D085
:1013E00091FAA1F0B0FA80F048F82020FFF7D8FA7F
:1013F000044664E091FAA1F0B0FA80F08A46C14652
:1014000048F82020FFF7CCFA804605E0FFF7C8FA3D
:10141000A0EB080002284ED897FAA7F0B0FA80F0A7
:1014200040F02000400902D0286801E05CE0686AD2
:1014300097FAA7F1B1FA81F101F01F0106FA01F163
:101440000842E3D1E86A616A20F00F000843E862CD
:10145000D4E907100843696821F4761108436860ED
:101460009AFAAAF0B0FA80F049F82060FFF798FAEB
:10147000044604E0FFF794FA001B02281BD897FAF1
:10148000A7F0B0FA80F040F02000400901D02868B1
:1014900000E0686A97FAA7F1B1FA81F101F01F0143
:1014A00006FA01F10842E5D01EE000BFFFF778FA26
:1014B000001B022803D90320BDE8F88F16E097FA35
:1014C000A7F0B0FA80F040F02000400901D0286871
:1014D00000E0686A97FAA7F1B1FA81F101F01F0103
:1014E00006FA01F10842E1D10020E5E70120E3E737
:1014F00010B5401EB0F1807F01D3012010BD4FF028
:10150000E02460610F21601700F0B8FA0020A061AC
:1015100007202061002010BD7047704770B5036838
:101520000446D869196810F00F0508D1820606D55F
:101530008A0604D52046BDE8704000F0D6BB9A6804
:10154000002D66D002F0010501F490762E4360D0A4
:10155000C60707D0CE0505D501261E62E36E43F00F
:101560000103E366830708D5D30706D02668022364
:101570003362E36E43F00403E366430708D5D20702
:1015800006D0236804221A62E26E42F00202E2668A
:1015900002070AD501F020022A4306D02368082258
:1015A0001A62E26E42F00802E266E26E002A29D078
:1015B000800604D5880602D5204600F096FBE06E32
:1015C000000703D42068806840061CD5204600F040
:1015D00071FB20688168490611D5816821F04001BE
:1015E0008160606E58B11C494163606EFFF7B4F8CA
:1015F000002807D0606E416BBDE870400847204668
:10160000FFF78BFF70BD2046FFF787FF0020E066E5
:1016100070BDC5020ED552020CD54FF48010186271
:10162000202084F8690084F86A002046BDE87040F4
:10163000FFF772BF020606D50A0604D52046BDE8AC
:10164000704000F079BC4006E2D54806E0D520465F
:10165000BDE8704000F03CBBA11C000810B50400C0
:1016600003D094F8690010B107E0012010BD0020FC
:1016700084F86800204600F027F8242084F86900E8
:101680002068016821F001010160204600F068FB3C
:101690000128EBD0606A10B1204600F06FFA206894
:1016A000416821F4904141602068816821F02A015D
:1016B00081602068016841F0010101602046BDE8B9
:1016C000104000F0BFBA0000F0B587B00446142106
:1016D0006846FEF792FD2C4B226800252B49022418
:1016E000032605272A489A421CD1CA6942F40022DF
:1016F000CA61CA6902F4002205924A6942F40022D2
:101700004A61496901F400210591B1028DE8F200B6
:101710006946FFF759F8002211463420FFF7A2F975
:1017200034202DE01B4B9A422CD1CA6942F480121E
:10173000CA61CA6902F4801205924A6942F4002221
:101740004A614A6902F4002205924A6942F4801211
:101750004A61496901F48011059199148DE8F200FC
:101760006946FFF731F804208DE8F10069460A4820
:10177000FFF72AF8002211463520FFF773F93520CC
:10178000FFF764F907B0F0BD004C004000100240C4
:101790000008004800500040000C00482DE9F84FB8
:1017A000044690F86A009A4616460D46202866D1EF
:1017B000EDB1E6B194F86800012860D0012084F80A
:1017C00068000027E766222084F86A004C34FFF79F
:1017D000E7F8A6818146E68154F8440C4FF480581E
:1017E000FF214C3C404508D1206918B10DE0012093
:1017F000BDE8F88F40F2FF100DE07F2218B1B0F184
:10180000805F05D009E0206950B9A4F85C1004E0BD
:10181000206928B13F20A4F85C00B4F85C601DE0AA
:10182000A4F85C20F9E700BFB4F85A00401EA4F801
:101830005A004B46002220212046CDF800A000F09F
:10184000ADFB08B10320D3E7A068404501D1206972
:1018500078B12068808C304005F8010BB4F85A004C
:101860000028E1D1202084F86A0084F86870002004
:10187000BEE72068808C304025F8020BEEE702209E
:10188000B6E7000010B507494FF448734FF42F72C4
:10189000A1F17000FFF782FFBDE81040014902A0EE
:1018A00000F0B0BB440100202573200A0D000000A9
:1018B0002DE9F843044690F869001F4616460D4688
:1018C00020284DD1CDB1C6B194F86800012847D089
:1018D000012084F868004FF00008C4F86C802120D3
:1018E00084F869005034FFF75BF824F8026B8146F6
:1018F00024F852694FF4805618E00120BDE8F883BF
:10190000B4F85200401EA4F852004B460022802139
:101910002046009700F042FBA0B9A068B04201D178
:10192000206988B115F8010B21680885B4F85200C8
:101930000028E5D14B46002240212046009700F0C8
:101940002DFB30B10320D9E735F8020BC0F30800B6
:10195000EAE7202084F8690084F868800020CDE759
:101960000220CBE77047FEE707490968C9070AD09C
:10197000054980390968C90705D04FF060410A68F8
:10198000002AFCD008707047800E00E030B587B0A8
:1019900014216846FEF731FC1F48416941F40031CB
:1019A0004161416901F400310591416941F48021AF
:1019B0004161416901F480210591416941F40021AF
:1019C0004161416901F400210591416941F48011AF
:1019D00041614069002400F4801005900320CDE9A6
:1019E000000402204FF09045029069462846FEF719
:1019F000EBFE1020CDE90004694628460294FEF76C
:101A0000E3FE0120CDE90004694604480294FEF794
:101A1000DBFE07B030BD00000010024000040048AB
:101A20000948084901604FF4165141600021816066
:101A30000C22C160C0E904128161C161016241628E
:101A4000FFF70CBE004C0040640000200948084924
:101A500001604FF416514160002181600C22C16089
:101A6000C0E904128161C16101624162FFF7F6BD04
:101A700000500040D4000020FEE770470907090E1F
:101A8000002806DA00F00F0000F1E02080F8141DB5
:101A9000704700F1E02080F80014704770477047ED
:101AA000FEF784BF10B5A6B0282116A8FEF7A5FB47
:101AB000142120A8FEF7A1FB58216846FEF79DFBE4
:101AC0000220169001201990102000241A901C94D6
:101AD00016A8FFF741FA0F20CDE9200422942394A1
:101AE000002120A82494FFF739F9182005940090CC
:101AF00006946846FEF7E8FF26B010BD144801685A
:101B000041F4700101601348016841F00101016076
:101B10004168114A114041600168104A114001605A
:101B2000016821F480210160416821F4FE014160D7
:101B3000C16A21F00F01C162016B094A11400163C2
:101B4000002181600249C0038039086070470000AD
:101B500088ED00E0001002400CC07FF8FFFFF6FEA9
:101B6000CCFC00FF0148FFF7D9BC00006400002056
:101B70000148FFF7D3BC0000D400002090F82410E7
:101B8000C90706D001684A68836A22F400321A4302
:101B90004A6090F82410890706D501684A68C36A2C
:101BA00022F480321A434A6090F82410490706D57F
:101BB00001684A68036B22F480221A434A6090F855
:101BC0002410090706D501684A68436B22F40042D5
:101BD0001A434A6090F82410C90606D501688A683D
:101BE000836B22F480521A438A6090F8241089068D
:101BF00006D501688A68C36B22F400521A438A60D2
:101C000090F82410490611D501684A68036C22F443
:101C100080121A434A60016CB1F5801F06D1016839
:101C20004A68436C22F4C0021A434A6090F82410B8
:101C3000090606D501684A68806C22F40022024336
:101C40004A607047F8B500260446C666FEF7A8FE4F
:101C50000546206800686FF07E47000708D52B46D0
:101C600000224FF400112046009700F097F960B968
:101C70002068006840070AD52B4600224FF48001F7
:101C80002046009700F08AF908B10320F8BD202013
:101C900084F8690084F86A0084F868600020F8BD60
:101CA00010B5406A0021A0F85A10A0F85210FFF7B2
:101CB00034FC10BD01680A6822F490720A60016861
:101CC0008A6822F001028A60202180F86A10704739
:101CD00010B501680A6822F040020A60202180F8ED
:101CE0006910FFF73FFE002010BD10B5B0F85C2072
:101CF00090F86A300168222B05D0886940F008000E
:101D00008861022010BD898C8368B3F5805F01D1A2
:101D100003696BB11140426D531C43651170B0F8FB
:101D20005A10491E0904090CA0F85A1007D015E0F2
:101D3000436D11401980416D891C4165EFE70168D1
:101D40000A6822F490720A6001688A6822F001022F
:101D50008A60202180F86A10FFF794FD002010BDF2
:101D60002DE9F041044610202369A268E6691A4370
:101D70006369002133431A4323680D461E68654F8B
:101D80003E4016431E6022685368E66823F44053C1
:101D900033435360236AA2691A4323689E6826F47A
:101DA000306616439E605C4F22685C4B0603BA4265
:101DB0000CD11B6B13F0030306D0012B4DD0022B6B
:101DC0004DD0032B4CD146E0012049E0544FBA429C
:101DD0000CD11B6B13F440333BD0B3423DD0B3F571
:101DE000003F3CD0B3F5403F3AD134E04D4FBA42CA
:101DF0000DD11B6B13F440232BD0B3F5802F2CD0C7
:101E0000B3F5002F2BD0B3F5402F29D123E0464F57
:101E1000BA420DD11B6B13F440131AD0B3F5801FD7
:101E20001BD0B3F5001F1AD0B3F5401F18D112E034
:101E30003E4FBA4214D11B6B13F4400309D0B3F5E3
:101E4000800F0AD0B3F5000F09D0B3F5400F07D1CA
:101E500001E0002004E0022002E0042000E008206D
:101E6000E7694FF400439F4227D109281ED2DFE8DB
:101E700000F00508131D161D1D1D1900FFF710F8B1
:101E800001E0FFF725F84100D4F8040001EB500110
:101E9000B1FBF0F081B20AE025496068F6E7FFF790
:101EA0002FF8F0E7606806EB5001F1E7012521F01B
:101EB0000F00C1F3420108431CE0092825D2DFE8E6
:101EC00000F005080B24102424241C00FEF7E8FF72
:101ED00009E0FEF7FDFF06E01649606801EB5001DE
:101EE0000EE0FFF70DF80146606801EB5001B1FB11
:101EF000F0F080B22168C86008E0606803EB500130
:101F0000B1FBF0F080B2D06000E001252846BDE8CA
:101F1000F0810000F369FFEF00380140001002403B
:101F20000044004000480040004C00400050004089
:101F30000024F40000127A0090F86910212901D0E1
:101F400002207047B0F8521021B18168B1F5805F6E
:101F50000BD00CE001680A6822F080020A60006879
:101F6000016841F0400101600CE0016961B1C16CA0
:101F70004A1CC26402680978A2F8281030F8521F7F
:101F8000491E018000207047C16C02680988C1F3B6
:101F900008011185C16C891CC164EFE72DE9F0418E
:101FA000984617460E460446069D1DE0681C1BD049
:101FB0002DB1FEF7F5FCA0EB0800A84214D920686B
:101FC000016821F4D07101602068816821F001016D
:101FD0008160202084F8690084F86A00002084F879
:101FE00068000320BDE8F0812068C06936EA00007F
:101FF00004D00020B842D9D00020F3E70120F9E74F
:10200000FEE700000FB4054B10B503A9044A02987F
:1020100000F010FB10BC5DF814FB0000B52D0008AB
:10202000600000200FB41CB50246002007AC002958
:102030000BD0491ECDE90021054B6A462146069882
:1020400000F0F8FA009A002111701CBC5DF814FB36
:10205000632D000803B401984100009850EAC120A4
:1020600018BF04204A0D18BF40F0010040F2FF7273
:10207000B2EB515F08BF40F00200012808BF052005
:1020800002B070470000000070B59B482DED020BB8
:102090002DED068B079D25F00044A04218DC9748E3
:1020A000844202DC0AD1069840B19DED060BBDECDE
:1020B000068B02B0BDE8704000F0CEB9002DCCBF59
:1020C0009FED8F0B9FED900BBDEC068B02B070BDAA
:1020D0008F48A04215DD8F48A042D8BF4FF0FF3493
:1020E00058DD9DED060B51EC100BFFF7B3FF0428F4
:1020F00008BF00F0BDF99DED060BBDEC068B02B0EC
:1021000070BD9DED060B51EC100B00F035FECDE9D6
:10211000060181489FED828BA0423CDD8248A042AF
:102120001FDD00249FED82AB9DED060B53EC1A2BB7
:1021300051EC100BFEF76CF89DED060B41EC190B02
:1021400053EC1A2B51EC100BFEF709F953EC182B3A
:10215000FEF7FFF853EC192BFEF773F9CDE90601F2
:1021600049E09DED060B012453EC182B51EC100BAC
:10217000FEF74EF89DED060B41EC190B53EC182BB6
:1021800051EC100BFEF7E5F853EC192BFEF759F95B
:10219000CDE906012FE06848A0421FDD02249FED33
:1021A000689B9DED060B53EC192B51EC100BFEF7C1
:1021B000D6F853EC182BFEF72BF89DED060B41ECEF
:1021C000180B53EC192B51EC100BFEF7C2F853EC23
:1021D000182BFEF736F9CDE906010CE09DED060B54
:1021E000032453EC102B9FED580B51EC100BFEF712
:1021F00028F9CDE906019DED060B53EC102B51ECAF
:10220000100BFEF7ACF841EC180B53EC182BFEF753
:10221000A6F841EC190B4E480621B0EE490AF0EE43
:10222000690A784400F09CF853EC182B51EC100B21
:10223000FEF795F841EC180B4648B0EE490AF0EE6F
:10224000690A0521784400F08BF853EC192B51EC06
:10225000100BFEF784F841EC100B51EC180B53EC0B
:10226000102B002C0EDAFDF7D3FF9DED061B53EC6F
:10227000112BFEF774F89DED061B53EC112BFEF7A6
:102280006BF835E0FDF7C4FF9DED061B53EC112BF9
:10229000FEF765F841EC100B2F48784400EBC400C2
:1022A00090ED001B51EC100B53EC112BFEF751F885
:1022B0009DED061B53EC112BFEF74BF841EC100B78
:1022C0002648784400EBC40090ED001B51EC100B45
:1022D00053EC112BFEF740F841EC100B002DA2BF80
:1022E000BDEC068B02B070BD51EC100B81F00041CB
:1022F00041EC100B01E70000000010440000F07FEB
:10230000182D4454FB21F93F182D4454FB21F9BFEB
:102310000000DC3F0000203E0000F33F0000000012
:10232000000000000000F03F0000E63F0000000059
:10233000000000000000004000800340000000009A
:10234000000000000000F83F000000000000F0BFA7
:10235000EA0D0000A00D00002A0D0000E20C0000B4
:1023600070B504462DED028B4D1E00EBC500B0EE9E
:10237000408AF0EE608A90ED000B35F0060017D031
:1023800053EC182B51EC100BFDF7E9FF41EC100B4F
:102390006D1E04EBC50090ED001B51EC100B53ECCF
:1023A000112BFDF735FF41EC100B35F00600E7D19E
:1023B000022D36D0042D1CD0062D1CBFBDEC028B87
:1023C00070BD53EC182B51EC100BFDF7C8FF94EDCA
:1023D0000A1B53EC112BFDF71BFF53EC182BFDF7D9
:1023E000BEFF94ED081B53EC112BFDF711FF41ECE0
:1023F000100B53EC182B51EC100BFDF7B0FF94EDC4
:10240000061B53EC112BFDF703FF53EC182BFDF7C4
:10241000A6FF94ED040B53EC102BFDF7F9FE41ECF5
:10242000100B53EC182B51EC100BFDF798FF94EDAB
:10243000021B53EC112BFDF7EBFE53EC182BFDF7B1
:102440008EFF94ED001B53EC112BFDF7E1FEBDEC6C
:10245000028B41EC100B70BD10B553EC102B51ECFE
:10246000100BFDF7D5FE41EC100B10BD0000000075
:102470009FED050B10B553EC102B51EC100BFDF735
:102480006EFF41EC100B10BD0000000000000010BA
:1024900002E008C8121F08C1002AFAD1704770472D
:1024A000002001E001C1121F002AFBD1704700008B
:1024B0002DE9FF5F82B00021DDE90430020DDDF877
:1024C00040B0034318D044F61050A2F2FF3242430A
:1024D0001514119801281FD0A5EB0B00401C5FEAD2
:1024E000000A4FF000064E4FDFF83891B0465046D4
:1024F00015D5CAF1000413E0119801244AA301285C
:1025000001D16FEA0B010298119AC0E90031C0E9CC
:10251000024206B0BDE8F09FCBF10000DFE70446C1
:102520000021404A491842EB0450CDE9001012E066
:10253000E00707D032463B4640464946FDF70FFFCD
:102540008046894632463B4610461946FDF707FF4E
:1025500006460F466410002CEAD1DDE90401DDE9EE
:102560000023BAF1000F06DAFDF7F9FE42464B46AA
:10257000FDF7F5FE05E0FDF764FF42464B46FDF72B
:1025800060FF04460E460022284BFEF7B9F803D838
:102590004FF0FF30014607E00022254B2046314630
:1025A000FDF736FEFEF794F8102409E0002C0ADB54
:1025B0000A220023FDF7DDFF039B30321A55641E0B
:1025C00050EA0102F2D1641C039AC4F111031444CD
:1025D000119A012A03D0012208430DD10AE00843D1
:1025E00004D000204FF0110B119072E7A3EB0B0504
:1025F0006D1E0DE05B4504DD4FF0000205F10105A5
:1026000004E003DA4FF00002A5F10105002AECD046
:1026100002981199C0E90231C0E9004579E700004C
:10262000000014400000F03F300000000000F043C4
:102630000000E03F2DE9FF4F95B09B4689460646D6
:1026400000250FE2252877D100242746F84A0121EA
:10265000059400E0044316F8013F203B01FA03F023
:102660001042F7D130782A2811D06FF02F0330783C
:10267000A0F13002092A16D8059A44F0020402EBB0
:10268000820203EB42021044761C0590EFE759F8F2
:10269000042B0592002A03DA504244F400540590BA
:1026A00044F00204761C30782E2816D116F8010F5B
:1026B00044F004042A280DD06FF02F023078A0F1E6
:1026C0003003092B09D807EB870302EB4303C71834
:1026D000761CF3E759F8047B761C30786C280FD011
:1026E00006DC4C2817D068280DD06A2814D104E0E5
:1026F000742810D07A280FD10DE044F400140AE0B9
:1027000044F4801401E044F440147278824202D10F
:1027100004F58014761C761C307866280BD013DC08
:10272000582877D009DC002875D04528F6D04628EF
:10273000F4D047281AD19DE118E0632835D06428E9
:1027400079D0652812D195E1702873D008DC67280C
:10275000F1D069286FD06E280DD06F2806D1B5E072
:1027600073282CD0752875D0782874D05A461799BC
:1027700090476D1C75E1C4F30250022809D003286C
:102780000DD0D9F8001004280DD00D6009F104090E
:1027900067E1D9F80010EA17C1E90052F6E7D9F865
:1027A00000100D80F2E70D70F0E719F8041B8DF8AA
:1027B000001000208DF80100EA46012003E059F8DE
:1027C00004AB4FF0FF3061074FF0000102D40DE081
:1027D00008F101018846B9420FDA8045F8DB1AF8A2
:1027E00008100029F4D108E008F10101884681426F
:1027F000FADB1AF808100029F6D105985B46A0EB21
:10280000080721463846179A00F094FA284400EB4E
:10281000080507E04DE029E10DE01AF8010B5A46E2
:1028200017999047B8F10108F7D25B462146384620
:10283000179A13E142E00A220092C4F302524FF0C9
:10284000000A022A08D059F804CB032A4FEAEC7197
:102850000AD00DE029E02AE009F1070121F0070282
:10286000F2E802C1914609E00FFA8CFC4FEAEC71E4
:10287000042A03D14FFA8CFC4FEAEC71002907DAE5
:102880000A460021DCF1000C61EB02012D2202E07E
:10289000220504D52B228DF80420012203E0E20753
:1028A00001D02022F7E7904659E00A2102E01022E9
:1028B0000DE010214FF0000A00910BE010224FF0C4
:1028C000000A44F004040827009203E008224FF0B5
:1028D000000A0092C4F30252022A05D059F804CB30
:1028E0000021032A08D009E009F1070121F00702BD
:1028F000F2E802C1914605E01FFA8CFC042A01D1DE
:102900000CF0FF0C4FF00008220728D5702806D0E5
:10291000009B83F0100353EA0A0305D00EE0402227
:102920008DF80420012208E05CEA010206D0302282
:102930008DF804208DF8050002229046009B83F05C
:10294000080353EA0A030AD15CEA010201D16207D3
:1029500005D530228DF804204FF001087F1E58283D
:1029600004D034A003900EA802900DE036A0F9E741
:1029700053466046009AFDF7FCFD84460398825C4E
:102980000298401E029002705CEA0100F0D10298A9
:1029900006A9081A00F1200A600702D524F4803441
:1029A00000E00127574502DDA7EB0A0000E0002008
:1029B00000EB0A01009005984144401A0590E0039D
:1029C00006D45B462146179A059800F0B3F90544F2
:1029D000002706E001A85A46C05D179990476D1C74
:1029E0007F1C4745F6DBE0030CD55B462146179A72
:1029F000059800F09FF9054404E030205A461799E5
:102A000090476D1C0099481E00900029F5DC08E0F5
:102A1000029802995A460078491C029117999047EA
:102A20006D1CBAF10001AAF1010AF1DC65E10000B8
:102A30000928010030313233343536373839616294
:102A40006364656600000000303132333435363758
:102A500038394142434445460000000000F058F92F
:102A60000544761C307800287FF4ECAD19B0284678
:102A7000BDE8F08F620700D4062709F1070222F0B3
:102A8000070CFCE80223E14603F000485FEA080C6B
:102A900002D00FF2702C0DE05FEA045C02D50FF259
:102AA000682C07E05FEAC47C02D00FF2602C01E0E2
:102AB000AFF2700C4FF0FF3823F00043CDF850C058
:102AC00065280CD006DC452809D046281DD04728AB
:102AD0003DD13DE0662818D067287ED138E000213E
:102AE000112F01DB112000E0781CCDE9000106A9BF
:102AF0000EA8FFF7DDFCDDE90F010E9A039100211E
:102B0000009207F1010A04914DE04FF00040009758
:102B1000CDE9011006A90EA8FFF7CAFCDDE90F02F6
:102B200003920E9B11990022DDF80CA000930492F1
:102B300011B9791C00EB010AB7EB0A0004D4C0F10B
:102B4000FF3007F1010A0490AAEB0700019044E06E
:102B5000012F00DA01270021112F01DD112000E0F3
:102B60003846CDE9000106A90EA8FFF7A1FCDDE972
:102B70000F010E9A0391002104910092BA46210799
:102B80000CD40399514500DA8A46BAF1010F05DDEC
:102B9000009AAAF10101515C302908D0B84202DA4A
:102BA00010F1040F06DA0121CDE9011015E0AAF1B8
:102BB0000101E9E7002805DC049901440491AAEB2E
:102BC000000102E0411C514500DD8A460499401A8B
:102BD000401C01904FF000400290200704D401985F
:102BE000504501DBCDF8048000208DF84F0002989D
:102BF0000DF14F07B0F1004F25D02B200E90029819
:102C00004FF0020800280CDA404202902D200E906E
:102C100007E00A210298FDF796FC3031029007F890
:102C2000011DB8F10001A8F10108F2DC02980028AA
:102C3000EFD1791E0E980870307800F0200040F037
:102C4000450007F8020D12A8C01B00F107081498F0
:102C5000007800B1012000EB0A01019801EBE0715E
:102C600005984144401A401E0590E00306D45B4697
:102C70002146179A059800F05DF8054414980078ED
:102C800018B15A46179990476D1CE00324D55B464E
:102C90002146179A059800F04DF805441CE0049869
:102CA000002807DBDDE90301884203DD0098405C72
:102CB000179901E0179930205A469047049805F17A
:102CC0000105401C04900198401E019004D12E2063
:102CD0005A46179990476D1CBAF10001AAF1010AF2
:102CE000DDDC05E017F8010B5A46179990476D1C7B
:102CF000B8F10001A8F10108F4DC5B462146179AFF
:102D00000598ABE62D0000002B000000200000001D
:102D10002DE9F041044600251E461746880404D4D8
:102D200005E039462020B0476D1C641EF9D52846C1
:102D3000BDE8F0812DE9F041044600251E4690468D
:102D4000C80301D5302700E02027880404D505E01A
:102D500041463846B0476D1C641EF9D52846BDE88B
:102D6000F0814A68002A06D00A68531C0B60107074
:102D70004868401E4860704782B0CDE9000121F0EC
:102D8000004001909DED000B02B051EC100B70471C
:102D90001CB5054805A20A2190ED0A0B04488DEDEB
:102DA000000BFFF73FF91CBD000000202566000066
:102DB00000040020034A914201D1FEF7D5BD4FF037
:102DC000FF307047600000202DED068BFDF7F6FD0B
:102DD000FEF768FEFEF7DAFDFEF722FEFEF736FE8E
:102DE000534E544C4FF090454FF4C877012128467C
:102DF000FDF7D0FD012807D19FED4F0A84ED000AB1
:102E00009FED4E0A84ED010A02212846FDF7C2FD1E
:102E1000012807D19FED4A0A84ED020A9FED490A75
:102E200084ED030A10212846FDF7B4FD012807D1DF
:102E30009FED450A84ED040A9FED440A84ED050ADE
:102E400001213046FDF7A6FD01286CD1D4ED040A1E
:102E5000DFED3FAAC4ED020A94ED050A9FED3DAAFD
:102E600084ED030AC4ED04AA84ED05AAD4ED009A0A
:102E700070EEE90AC4ED070A94ED019A30EE491AA2
:102E800084ED061A80EE810A10EE100AFDF748FB69
:102E90007AEEE90A3AEE491A41EC180B84ED0C8BF4
:102EA00080EE810AC4ED090A84ED081A10EE100ABA
:102EB000FDF736FB41EC190B51EC180B84ED0E9B22
:102EC00053EC192BFDF74BFA9FED231B53EC112B01
:102ED000FDF79EF941EC1A0B53EC192B51EC180B32
:102EE000FDF737FA53EC1A2BFDF7ABFA41EC100B58
:102EF00084ED100BFFF7C8F884ED120BFFF7C4F850
:102F00009FED171B51EC100B53EC112BFDF727FA1B
:102F1000C4E90A01FFF73CFF134964230A22A1F523
:102F20006770FEF7C5FC3846FDF73CFC5EE7000025
:102F30000004004800000020D7A3803F9CC4803FCD
:102F4000EC5100404E62004060E5803F2506813F25
:102F5000621000417B140041000000000000F03FBF
:102F6000E5BF631ADCA54C40000400200203040501
:102F7000060708090A0B0C0D0E0F101001020304BE
:102F800005060708090A0B0C0D0E0F1000000000C3
:102F90000000000001020304060708090000000009
:102FA00001020304000000004FBB610567ACDD3F78
:102FB000182D4454FB21E93F9BF681D20B73EF3F60
:102FC000182D4454FB21F93FE2652F227F2B7A3CD8
:102FD000075C143326A6813CBDCBF07A8807703C91
:102FE000075C143326A6913CC4EB98999999C9BF04
:102FF000711623FEC671BCBF6D9A74AFF2B0B3BF39
:103000009AFDDE522DDEADBF2F6C6A2C44B4A2BFF8
:103010000D5555555555D53FFF8300922449C23F64
:103020006E204CC5CD45B73F513DD0A0660DB13F98
:10303000EB0D76244B7BA93F11DA22E33AAD903FAA
:1030400060300008000000206400000090240008A8
:10305000C430000864000020AC070000A024000871
:103060000000000000000000000000000000000060
:103070000000000000000000000000000000000050
:103080000000000000000000000000000000000040
:103090000000000000000000000000000000000030
:1030A0000000000000000000000000000000000020
:1030B00001000000100000000000000000127A0073
:0430C000000000000C
:040000050800019559
:00000001FF
